{
    "alloc": {
        "0x8a8eafb1cf62bfbeb1741769dae1a9dd47996192": {
            "balance": "0xfeed1a9d",
            "nonce": "0x1"
        },
        "0xa94f5374fce5edbc8e2a8697c15331677e6ebf0b": {
            "balance": "0x5ffd4878be161d74",
            "nonce": "0xac"
        },
        "0xc94f5374fce5edbc8e2a8697c15331677e6ebf0b": {
            "balance": "0xa410"
        }
    },
    "result": {
        "stateRoot": "0x84208a19bc2b46ada7445180c1db162be5b39b9abc8c0a54b05d32943eae4e13",
        "txRoot": "0xc4761fd7b87ff2364c7c60b6c5c8d02e522e815328aaea3f20e3b7b7ef52c42d",
        "receiptsRoot": "0x056b23fbba480696b65fe5a59b8f2148a1299103c4f57df839233af2cf4ca2d2",
        "logsHash": "0x1dcc4de8dec75d7aab85b567b6ccd41ad312451b948a7413f0a142fd40d49347",
        "logsBloom": "0x00000000000000000000000000000000000000000000000000000000000000000000000000000000000000000000000000000000000000000000000000000000000000000000000000000000000000000000000000000000000000000000000000000000000000000000000000000000000000000000000000000000000000000000000000000000000000000000000000000000000000000000000000000000000000000000000000000000000000000000000000000000000000000000000000000000000000000000000000000000000000000000000000000000000000000000000000000000000000000000000000000000000000000000000000000000",
        "receipts": [
            {
                "root": "0x",
                "status": "0x1",
                "cumulativeGasUsed": "0x5208",
                "logsBloom": "0x00000000000000000000000000000000000000000000000000000000000000000000000000000000000000000000000000000000000000000000000000000000000000000000000000000000000000000000000000000000000000000000000000000000000000000000000000000000000000000000000000000000000000000000000000000000000000000000000000000000000000000000000000000000000000000000000000000000000000000000000000000000000000000000000000000000000000000000000000000000000000000000000000000000000000000000000000000000000000000000000000000000000000000000000000000000",
                "logs": null,
                "transactionHash": "0x0557bacce3375c98d806609b8d5043072f0b6a8bae45ae5a67a00d3a1a18d673",
                "contractAddress": "0x0000000000000000000000000000000000000000",
                "gasUsed": "0x5208",
                "blockHash": "0x0000000000000000000000000000000000000000000000000000000000000000",
                "transactionIndex": "0x0"
            }
        ],
        "rejected": [
            {
                "index": 1,
                "error": "nonce too low: address 0x8A8eAFb1cf62BfBeb1741769DAE1a9dd47996192, tx: 0 state: 1"
            }
        ],
        "currentDifficulty": "0x20000",
        "gasUsed": "0x5208"
    },
    "txs_rlp": "0xf8c2f85f8002825208948a8eafb1cf62bfbeb1741769dae1a9dd4799619201801ba09500e8ba27d3c33ca7764e107410f44cbd8c19794bde214d694683a7aa998cdba07235ae07e4bd6e0206d102b1f8979d6adab280466b6a82d2208ee08951f1f600f85f8002825208948a8eafb1cf62bfbeb1741769dae1a9dd4799619201801ba09500e8ba27d3c33ca7764e107410f44cbd8c19794bde214d694683a7aa998cdba07235ae07e4bd6e0206d102b1f8979d6adab280466b6a82d2208ee08951f1f600"
}