{
    "alloc": {
        "0x000000000000000000000000000000000000aaaa": {
            "code": "0x58585454",
            "balance": "0x3",
            "nonce": "0x1"
        },
        "0x2adc25665018aa1fe0e6bc666dac8fc2697ff9ba": {
            "balance": "0x5bb10ddef6e0"
        },
        "0xa94f5374fce5edbc8e2a8697c15331677e6ebf0b": {
            "balance": "0xff745ee8832120",
            "nonce": "0x2"
        }
    },
    "result": {
        "stateRoot": "0xb6a91a6325208084fbc20f9b971cf0422fa4221316faefdc7df8abaf42b72f27",
        "txRoot": "0xbe6c599aefbec1cfe31dbdeca4b4dd0315bf5fca0f78e10c8f869c40a42feb0d",
        "receiptsRoot": "0x5fdadbccc0b40ed39f6c7aacafb08a71c468f28793027552d9d99b1aeb19d406",
        "logsHash": "0x1dcc4de8dec75d7aab85b567b6ccd41ad312451b948a7413f0a142fd40d49347",
        "logsBloom": "0x00000000000000000000000000000000000000000000000000000000000000000000000000000000000000000000000000000000000000000000000000000000000000000000000000000000000000000000000000000000000000000000000000000000000000000000000000000000000000000000000000000000000000000000000000000000000000000000000000000000000000000000000000000000000000000000000000000000000000000000000000000000000000000000000000000000000000000000000000000000000000000000000000000000000000000000000000000000000000000000000000000000000000000000000000000000",
        "receipts": [
            {
                "type": "0x2",
                "root": "0x",
                "status": "0x1",
                "cumulativeGasUsed": "0x6b70",
                "logsBloom": "0x00000000000000000000000000000000000000000000000000000000000000000000000000000000000000000000000000000000000000000000000000000000000000000000000000000000000000000000000000000000000000000000000000000000000000000000000000000000000000000000000000000000000000000000000000000000000000000000000000000000000000000000000000000000000000000000000000000000000000000000000000000000000000000000000000000000000000000000000000000000000000000000000000000000000000000000000000000000000000000000000000000000000000000000000000000000",
                "logs": null,
                "transactionHash": "0xb4821e4a9122a6f9baecad99351bee6ec54fe8c3f6a737b2e6478f4963536819",
                "contractAddress": "0x0000000000000000000000000000000000000000",
                "gasUsed": "0x6b70",
                "blockHash": "0x0000000000000000000000000000000000000000000000000000000000000000",
                "transactionIndex": "0x0"
            },
            {
                "root": "0x",
                "status": "0x1",
                "cumulativeGasUsed": "0xcde4",
                "logsBloom": "0x00000000000000000000000000000000000000000000000000000000000000000000000000000000000000000000000000000000000000000000000000000000000000000000000000000000000000000000000000000000000000000000000000000000000000000000000000000000000000000000000000000000000000000000000000000000000000000000000000000000000000000000000000000000000000000000000000000000000000000000000000000000000000000000000000000000000000000000000000000000000000000000000000000000000000000000000000000000000000000000000000000000000000000000000000000000",
                "logs": null,
                "transactionHash": "0xa9c6c6a848b9c9a0d8bbb4df5f30394983632817dbccc738e839c8e174fa4036",
                "contractAddress": "0x0000000000000000000000000000000000000000",
                "gasUsed": "0x6274",
                "blockHash": "0x0000000000000000000000000000000000000000000000000000000000000000",
                "transactionIndex": "0x1"
            }
        ],
        "currentDifficulty": "0x20000",
        "gasUsed": "0xcde4",
        "currentBaseFee": "0x3b9aca00"
    },
    "txs_rlp": "0xf9010db8a402f8a101800285012a05f2008304ef0094000000000000000000000000000000000000aaaa8080f838f794000000000000000000000000000000000000aaaae1a0000000000000000000000000000000000000000000000000000000000000000001a0d77c8ff989789b5d9d99254cbae2e2996dc7e6215cba4d55254c14e6d6b9f314a05cc021481e7e6bb444bbb87ab32071e8fd0a8d1e125c7bb352d2879bd7ff5c0af8650185012a05f2008304ef0094000000000000000000000000000000000000aaaa808025a0bee5ec9f6650020266bf3455a852eece2b073a2fa918c4d1836a1af69c2aa50ca0556c897a58dbc007a6b09814e1fba7502adb76effd2146da4365816926f387ce"
}