{
    "alloc": {
        "0x095e7baea6a6c7c4c2dfeb977efac326af552d87": {
            "code": "0x6001",
            "balance": "0xde0b6b3a76586a0"
        },
        "0x2adc25665018aa1fe0e6bc666dac8fc2697ff9ba": {
            "balance": "0x520b"
        },
        "0xa94f5374fce5edbc8e2a8697c15331677e6ebf0b": {
            "balance": "0xde0b6b3a7622755",
            "nonce": "0x1"
        }
    },
    "result": {
        "stateRoot": "0x65334305e4accfa18352deb24f007b837b5036425b0712cf0e65a43bfa95154d",
        "txRoot": "0x75e61774a2ff58cbe32653420256c7f44bc715715a423b0b746d5c622979af6b",
        "receiptsRoot": "0xa86bcf562f65e6162ae635a2214d835fce5d436f3128234de0c0873a916369de",
        "logsHash": "0x1dcc4de8dec75d7aab85b567b6ccd41ad312451b948a7413f0a142fd40d49347",
        "logsBloom": "0x00000000000000000000000000000000000000000000000000000000000000000000000000000000000000000000000000000000000000000000000000000000000000000000000000000000000000000000000000000000000000000000000000000000000000000000000000000000000000000000000000000000000000000000000000000000000000000000000000000000000000000000000000000000000000000000000000000000000000000000000000000000000000000000000000000000000000000000000000000000000000000000000000000000000000000000000000000000000000000000000000000000000000000000000000000000",
        "receipts": [
            {
                "root": "0x65334305e4accfa18352deb24f007b837b5036425b0712cf0e65a43bfa95154d",
                "status": "0x1",
                "cumulativeGasUsed": "0x520b",
                "logsBloom": "0x00000000000000000000000000000000000000000000000000000000000000000000000000000000000000000000000000000000000000000000000000000000000000000000000000000000000000000000000000000000000000000000000000000000000000000000000000000000000000000000000000000000000000000000000000000000000000000000000000000000000000000000000000000000000000000000000000000000000000000000000000000000000000000000000000000000000000000000000000000000000000000000000000000000000000000000000000000000000000000000000000000000000000000000000000000000",
                "logs": null,
                "transactionHash": "0x72fadbef39cd251a437eea619cfeda752271a5faaaa2147df012e112159ffb81",
                "contractAddress": "0x0000000000000000000000000000000000000000",
                "gasUsed": "0x520b",
                "blockHash": "0x0000000000000000000000000000000000000000000000000000000000000000",
                "transactionIndex": "0x0"
            }
        ],
        "currentDifficulty": "0x20000",
        "gasUsed": "0x520b"
    },
    "txs_rlp": "0xf866f86480018405f5e10094095e7baea6a6c7c4c2dfeb977efac326af552d87830186a0801ba088544c93a564b4c28d2ffac2074a0c55fdd4658fe0d215596ed2e32e3ef7f56ba07fb4075d54190f825d7c47bb820284757b34fd6293904a93cddb1d3aa961ac28"
}