{
    "alloc": {
        "0x1111111111111111111111111111111111111111": {
            "code": "0xfe",
            "balance": "0x10000000000",
            "nonce": "0x1"
        },
        "0xa94f5374fce5edbc8e2a8697c15331677e6ebf0b": {
            "balance": "0x10000000000",
            "nonce": "0x1"
        },
        "0xd02d72e067e77158444ef2020ff2d325f929b363": {
            "balance": "0xfffffc741a20",
            "nonce": "0x3"
        }
    },
    "result": {
        "stateRoot": "0xe4b924a6adb5959fccf769d5b7bb2f6359e26d1e76a2443c5a91a36d826aef61",
        "txRoot": "0x013509c8563d41c0ae4bf38f2d6d19fc6512a1d0d6be045079c8c9f68bf45f9d",
        "receiptsRoot": "0xa532a08aa9f62431d6fe5d924951b8efb86ed3c54d06fee77788c3767dd13420",
        "logsHash": "0x1dcc4de8dec75d7aab85b567b6ccd41ad312451b948a7413f0a142fd40d49347",
        "logsBloom": "0x00000000000000000000000000000000000000000000000000000000000000000000000000000000000000000000000000000000000000000000000000000000000000000000000000000000000000000000000000000000000000000000000000000000000000000000000000000000000000000000000000000000000000000000000000000000000000000000000000000000000000000000000000000000000000000000000000000000000000000000000000000000000000000000000000000000000000000000000000000000000000000000000000000000000000000000000000000000000000000000000000000000000000000000000000000000",
        "receipts": [
            {
                "type": "0x2",
                "root": "0x",
                "status": "0x0",
                "cumulativeGasUsed": "0x84d0",
                "logsBloom": "0x00000000000000000000000000000000000000000000000000000000000000000000000000000000000000000000000000000000000000000000000000000000000000000000000000000000000000000000000000000000000000000000000000000000000000000000000000000000000000000000000000000000000000000000000000000000000000000000000000000000000000000000000000000000000000000000000000000000000000000000000000000000000000000000000000000000000000000000000000000000000000000000000000000000000000000000000000000000000000000000000000000000000000000000000000000000",
                "logs": null,
                "transactionHash": "0xa98a24882ea90916c6a86da650fbc6b14238e46f0af04a131ce92be897507476",
                "contractAddress": "0x0000000000000000000000000000000000000000",
                "gasUsed": "0x84d0",
                "blockHash": "0x0000000000000000000000000000000000000000000000000000000000000000",
                "transactionIndex": "0x0"
            },
            {
                "type": "0x2",
                "root": "0x",
                "status": "0x0",
                "cumulativeGasUsed": "0x109a0",
                "logsBloom": "0x00000000000000000000000000000000000000000000000000000000000000000000000000000000000000000000000000000000000000000000000000000000000000000000000000000000000000000000000000000000000000000000000000000000000000000000000000000000000000000000000000000000000000000000000000000000000000000000000000000000000000000000000000000000000000000000000000000000000000000000000000000000000000000000000000000000000000000000000000000000000000000000000000000000000000000000000000000000000000000000000000000000000000000000000000000000",
                "logs": null,
                "transactionHash": "0x36bad80acce7040c45fd32764b5c2b2d2e6f778669fb41791f73f546d56e739a",
                "contractAddress": "0x0000000000000000000000000000000000000000",
                "gasUsed": "0x84d0",
                "blockHash": "0x0000000000000000000000000000000000000000000000000000000000000000",
                "transactionIndex": "0x1"
            }
        ],
        "currentDifficulty": "0x20000",
        "gasUsed": "0x109a0",
        "currentBaseFee": "0x36b"
    },
    "txs_rlp": "0xf8d2b86702f864010180820fa08284d09411111111111111111111111111111111111111118080c001a0b7dfab36232379bb3d1497a4f91c1966b1f932eae3ade107bf5d723b9cb474e0a06261c359a10f2132f126d250485b90cf20f30340801244a08ef6142ab33d1904b86702f864010280820fa08284d09411111111111111111111111111111111111111118080c080a0d4ec563b6568cd42d998fc4134b36933c6568d01533b5adf08769270243c6c7fa072bf7c21eac6bbeae5143371eef26d5e279637f3bd73482b55979d76d935b1e9"
}