{
    "alloc": {
        "0x000000000000000000000000000000000000aaaa": {
            "code": "0x58585454",
            "balance": "0x3",
            "nonce": "0x1"
        },
        "0x2adc25665018aa1fe0e6bc666dac8fc2697ff9ba": {
            "balance": "0x0"
        },
        "0xa94f5374fce5edbc8e2a8697c15331677e6ebf0b": {
            "balance": "0x100000000000000"
        }
    },
    "result": {
        "stateRoot": "0x949e1ffb8c2422e46d623a0b347195cca6e8084a7afba948b15b07de0ce171fb",
        "txRoot": "0x56e81f171bcc55a6ff8345e692c0f86e5b48e01b996cadc001622fb5e363b421",
        "receiptsRoot": "0x56e81f171bcc55a6ff8345e692c0f86e5b48e01b996cadc001622fb5e363b421",
        "logsHash": "0x1dcc4de8dec75d7aab85b567b6ccd41ad312451b948a7413f0a142fd40d49347",
        "logsBloom": "0x00000000000000000000000000000000000000000000000000000000000000000000000000000000000000000000000000000000000000000000000000000000000000000000000000000000000000000000000000000000000000000000000000000000000000000000000000000000000000000000000000000000000000000000000000000000000000000000000000000000000000000000000000000000000000000000000000000000000000000000000000000000000000000000000000000000000000000000000000000000000000000000000000000000000000000000000000000000000000000000000000000000000000000000000000000000",
        "receipts": [],
        "rejected": [
            {
                "index": 0,
                "error": "transaction type not supported"
            },
            {
                "index": 1,
                "error": "invalid transaction v, r, s values"
            }
        ],
        "currentDifficulty": "0x20000",
        "gasUsed": "0x0",
        "currentBaseFee": "0x3b9aca00"
    },
    "txs_rlp": "0xf9010db8a402f8a1018085012a05f200028304ef0094000000000000000000000000000000000000aaaa8080f838f794000000000000000000000000000000000000aaaae1a0000000000000000000000000000000000000000000000000000000000000000001a0d77c8ff989789b5d9d99254cbae2e2996dc7e6215cba4d55254c14e6d6b9f314a05cc021481e7e6bb444bbb87ab32071e8fd0a8d1e125c7bb352d2879bd7ff5c0af8650185012a05f2008304ef0094000000000000000000000000000000000000aaaa808025a0bee5ec9f6650020266bf3455a852eece2b073a2fa918c4d1836a1af69c2aa50ca0556c897a58dbc007a6b09814e1fba7502adb76effd2146da4365816926f387ce"
}