{
    "alloc": {
        "0x1111111111111111111111111111111111111111": {
            "code": "0xfe",
            "balance": "0x10000000000",
            "nonce": "0x1"
        },
        "0xa94f5374fce5edbc8e2a8697c15331677e6ebf0b": {
            "balance": "0x10000000000",
            "nonce": "0x1"
        },
        "0xd02d72e067e77158444ef2020ff2d325f929b363": {
            "balance": "0x1000000000000",
            "nonce": "0x1"
        }
    },
    "result": {
        "stateRoot": "0x672261540625ead9824ab76c57b9a56bdd433568429133fc1cdc55af6431e1e5",
        "txRoot": "0x56e81f171bcc55a6ff8345e692c0f86e5b48e01b996cadc001622fb5e363b421",
        "receiptsRoot": "0x56e81f171bcc55a6ff8345e692c0f86e5b48e01b996cadc001622fb5e363b421",
        "logsHash": "0x1dcc4de8dec75d7aab85b567b6ccd41ad312451b948a7413f0a142fd40d49347",
        "logsBloom": "0x00000000000000000000000000000000000000000000000000000000000000000000000000000000000000000000000000000000000000000000000000000000000000000000000000000000000000000000000000000000000000000000000000000000000000000000000000000000000000000000000000000000000000000000000000000000000000000000000000000000000000000000000000000000000000000000000000000000000000000000000000000000000000000000000000000000000000000000000000000000000000000000000000000000000000000000000000000000000000000000000000000000000000000000000000000000",
        "receipts": [],
        "rejected": [
            {
                "index": 0,
                "error": "transaction type not supported"
            },
            {
                "index": 1,
                "error": "transaction type not supported"
            },
            {
                "index": 2,
                "error": "transaction type not supported"
            },
            {
                "index": 3,
                "error": "transaction type not supported"
            }
        ],
        "currentDifficulty": "0x20000",
        "gasUsed": "0x0",
        "currentBaseFee": "0x36b"
    },
    "txs_rlp": "0xf901acb86902f866010180820fa084100000019411111111111111111111111111111111111111118080c080a07a45f00bcde9036b026cdf1628b023cd8a31a95c62b5e4dbbee2fa7debe668fba03cc9d6f2cd00a045b0263f2d6dad7d60938d5d13d061af4969f95928aa934d4ab86902f866010280820fa084100000009411111111111111111111111111111111111111118080c080a04c564b94b0281a8210eeec2dd1fe2e16ff1c1903a8c3a1078d735d7f8208b2afa0056432b2593e6de95db1cb997b7385217aca03f1615327e231734446b39f266db86902f866010380820fa084100000009411111111111111111111111111111111111111118080c080a02ed2ef52f924f59d4a21e1f2a50d3b1109303ce5e32334a7ece9b46f4fbc2a57a02980257129cbd3da987226f323d50ba3975a834d165e0681f991b75615605c44b86902f866010480820fa084100000009411111111111111111111111111111111111111118080c080a05df7d7f8f8e15b36fc9f189cacb625040fad10398d08fc90812595922a2c49b2a0565fc1803f77a84d754ffe3c5363ab54a8d93a06ea1bb9d4c73c73a282b35917"
}