{
    "alloc": {
        "0x000000000000000000000000000000000000aaaa": {
            "code": "0x5854505854",
            "balance": "0x7",
            "nonce": "0x1"
        },
        "0x2adc25665018aa1fe0e6bc666dac8fc2697ff9ba": {
            "balance": "0x14832"
        },
        "0xa94f5374fce5edbc8e2a8697c15331677e6ebf0b": {
            "balance": "0xeb7ca",
            "nonce": "0x3"
        }
    },
    "result": {
        "stateRoot": "0x45ca8ccf93a870405c821cae61cd21f96e2df2755153267e7e2cc912133404a5",
        "txRoot": "0xe42c488908c04b9f7d4d39614ed4093a33ff16353299672e1770b786c28a5e6f",
        "receiptsRoot": "0xb207f384195fb6fb7ee7105ba963cc19e1614ce0e75809999289c6c82e7a8d97",
        "logsHash": "0x1dcc4de8dec75d7aab85b567b6ccd41ad312451b948a7413f0a142fd40d49347",
        "logsBloom": "0x00000000000000000000000000000000000000000000000000000000000000000000000000000000000000000000000000000000000000000000000000000000000000000000000000000000000000000000000000000000000000000000000000000000000000000000000000000000000000000000000000000000000000000000000000000000000000000000000000000000000000000000000000000000000000000000000000000000000000000000000000000000000000000000000000000000000000000000000000000000000000000000000000000000000000000000000000000000000000000000000000000000000000000000000000000000",
        "receipts": [
            {
                "type": "0x1",
                "root": "0x",
                "status": "0x1",
                "cumulativeGasUsed": "0x7aae",
                "logsBloom": "0x00000000000000000000000000000000000000000000000000000000000000000000000000000000000000000000000000000000000000000000000000000000000000000000000000000000000000000000000000000000000000000000000000000000000000000000000000000000000000000000000000000000000000000000000000000000000000000000000000000000000000000000000000000000000000000000000000000000000000000000000000000000000000000000000000000000000000000000000000000000000000000000000000000000000000000000000000000000000000000000000000000000000000000000000000000000",
                "logs": null,
                "transactionHash": "0x26c8c6e23fa3b246f44fba53e7b5fcb55f01f1e075f2de3db9b982afd4bd3901",
                "contractAddress": "0x0000000000000000000000000000000000000000",
                "gasUsed": "0x7aae",
                "blockHash": "0x0000000000000000000000000000000000000000000000000000000000000000",
                "transactionIndex": "0x0"
            },
            {
                "root": "0x",
                "status": "0x1",
                "cumulativeGasUsed": "0xdd24",
                "logsBloom": "0x00000000000000000000000000000000000000000000000000000000000000000000000000000000000000000000000000000000000000000000000000000000000000000000000000000000000000000000000000000000000000000000000000000000000000000000000000000000000000000000000000000000000000000000000000000000000000000000000000000000000000000000000000000000000000000000000000000000000000000000000000000000000000000000000000000000000000000000000000000000000000000000000000000000000000000000000000000000000000000000000000000000000000000000000000000000",
                "logs": null,
                "transactionHash": "0x26ea003b1188334eced68a720dbe89886cd6a477cccdf924cf1d392e2281c01b",
                "contractAddress": "0x0000000000000000000000000000000000000000",
                "gasUsed": "0x6276",
                "blockHash": "0x0000000000000000000000000000000000000000000000000000000000000000",
                "transactionIndex": "0x1"
            },
            {
                "type": "0x1",
                "root": "0x",
                "status": "0x1",
                "cumulativeGasUsed": "0x14832",
                "logsBloom": "0x00000000000000000000000000000000000000000000000000000000000000000000000000000000000000000000000000000000000000000000000000000000000000000000000000000000000000000000000000000000000000000000000000000000000000000000000000000000000000000000000000000000000000000000000000000000000000000000000000000000000000000000000000000000000000000000000000000000000000000000000000000000000000000000000000000000000000000000000000000000000000000000000000000000000000000000000000000000000000000000000000000000000000000000000000000000",
                "logs": null,
                "transactionHash": "0x6997569ed85f1d810bc61d969cbbae12f34ce88d314ff5ef2629bc741466fca6",
                "contractAddress": "0x0000000000000000000000000000000000000000",
                "gasUsed": "0x6b0e",
                "blockHash": "0x0000000000000000000000000000000000000000000000000000000000000000",
                "transactionIndex": "0x2"
            }
        ],
        "currentDifficulty": "0x20000",
        "gasUsed": "0x14832"
    },
    "txs_rlp": "0xf901e8b8c101f8be0180018304ef0094000000000000000000000000000000000000aaaa0180f85bf859940000000000000000000000000000000000000000f842a00000000000000000000000000000000000000000000000000000000000000000a0000000000000000000000000000000000000000000000000000000000000000001a07977bbb2dc1172aa943b3337fb1c47697f160ace08161c26905d66a9df0b1984a00af1ba210c44562f36277b361fa7fe3f76e1ae21dae1ad2c4b288be19ad7559ef86001018304ef0094000000000000000000000000000000000000aaaa028026a05db134df45e75f64425dbae768bebea29f07f72e97694e991908a73bed4a003aa066e7b58c1c7b7b6df1b74e2f318b0fdd7d2f86d0d6e84a8941c9b001f30cbd34b8c101f8be0102018304ef0094000000000000000000000000000000000000aaaa0180f85bf85994000000000000000000000000000000000000aaaaf842a00000000000000000000000000000000000000000000000000000000000000000a0000000000000000000000000000000000000000000000000000000000000000301a05e4d503982984187b8379f44e949d894bd505446e1e4f30d0c6c94558072a007a0672ea197bdc44d449f853877f1ddec04eb62723e4a285f712529db783a24be26"
}